{
  "contractName": "Xotik",
  "abi": [
    {
      "constant": true,
      "inputs": [],
      "name": "name",
      "outputs": [
        {
          "name": "",
          "type": "string"
        }
      ],
      "payable": false,
      "stateMutability": "view",
      "type": "function"
    },
    {
      "constant": true,
      "inputs": [],
      "name": "totalSupply",
      "outputs": [
        {
          "name": "",
          "type": "uint256"
        }
      ],
      "payable": false,
      "stateMutability": "view",
      "type": "function"
    },
    {
      "constant": true,
      "inputs": [],
      "name": "standard",
      "outputs": [
        {
          "name": "",
          "type": "string"
        }
      ],
      "payable": false,
      "stateMutability": "view",
      "type": "function"
    },
    {
      "constant": true,
      "inputs": [
        {
          "name": "",
          "type": "address"
        }
      ],
      "name": "balanceOf",
      "outputs": [
        {
          "name": "",
          "type": "uint256"
        }
      ],
      "payable": false,
      "stateMutability": "view",
      "type": "function"
    },
    {
      "constant": true,
      "inputs": [],
      "name": "owner",
      "outputs": [
        {
          "name": "",
          "type": "address"
        }
      ],
      "payable": false,
      "stateMutability": "view",
      "type": "function"
    },
    {
      "constant": true,
      "inputs": [],
      "name": "symbol",
      "outputs": [
        {
          "name": "",
          "type": "string"
        }
      ],
      "payable": false,
      "stateMutability": "view",
      "type": "function"
    },
    {
      "constant": true,
      "inputs": [
        {
          "name": "",
          "type": "address"
        },
        {
          "name": "",
          "type": "address"
        }
      ],
      "name": "allowance",
      "outputs": [
        {
          "name": "",
          "type": "uint256"
        }
      ],
      "payable": false,
      "stateMutability": "view",
      "type": "function"
    },
    {
      "inputs": [
        {
          "name": "_initialSupply",
          "type": "uint256"
        }
      ],
      "payable": false,
      "stateMutability": "nonpayable",
      "type": "constructor"
    },
    {
      "anonymous": false,
      "inputs": [
        {
          "indexed": true,
          "name": "_from",
          "type": "address"
        },
        {
          "indexed": true,
          "name": "_to",
          "type": "address"
        },
        {
          "indexed": false,
          "name": "_value",
          "type": "uint256"
        }
      ],
      "name": "Transfer",
      "type": "event"
    },
    {
      "anonymous": false,
      "inputs": [
        {
          "indexed": true,
          "name": "_owner",
          "type": "address"
        },
        {
          "indexed": true,
          "name": "_spender",
          "type": "address"
        },
        {
          "indexed": false,
          "name": "_value",
          "type": "uint256"
        }
      ],
      "name": "Approval",
      "type": "event"
    },
    {
      "constant": false,
      "inputs": [
        {
          "name": "_to",
          "type": "address"
        },
        {
          "name": "_value",
          "type": "uint256"
        }
      ],
      "name": "transfer",
      "outputs": [
        {
          "name": "success",
          "type": "bool"
        }
      ],
      "payable": false,
      "stateMutability": "nonpayable",
      "type": "function"
    },
    {
      "constant": false,
      "inputs": [
        {
          "name": "_spender",
          "type": "address"
        },
        {
          "name": "_value",
          "type": "uint256"
        }
      ],
      "name": "approve",
      "outputs": [
        {
          "name": "success",
          "type": "bool"
        }
      ],
      "payable": false,
      "stateMutability": "nonpayable",
      "type": "function"
    }
  ],
  "bytecode": "0x60806040526040805190810160405280600581526020017f586f74696b0000000000000000000000000000000000000000000000000000008152506000908051906020019061004f9291906101e0565b506040805190810160405280600681526020017f24584f54494b00000000000000000000000000000000000000000000000000008152506001908051906020019061009b9291906101e0565b506040805190810160405280600a81526020017f584f54494b2076312e3000000000000000000000000000000000000000000000815250600290805190602001906100e79291906101e0565b50620f42406003553480156100fb57600080fd5b50604051602080610c9b8339810180604052602081101561011b57600080fd5b810190808051906020019092919050505033600460006101000a81548173ffffffffffffffffffffffffffffffffffffffff021916908373ffffffffffffffffffffffffffffffffffffffff1602179055508060056000600460009054906101000a900473ffffffffffffffffffffffffffffffffffffffff1673ffffffffffffffffffffffffffffffffffffffff1673ffffffffffffffffffffffffffffffffffffffff168152602001908152602001600020819055508060038190555050610285565b828054600181600116156101000203166002900490600052602060002090601f016020900481019282601f1061022157805160ff191683800117855561024f565b8280016001018555821561024f579182015b8281111561024e578251825591602001919060010190610233565b5b50905061025c9190610260565b5090565b61028291905b8082111561027e576000816000905550600101610266565b5090565b90565b610a07806102946000396000f3fe608060405260043610610099576000357c0100000000000000000000000000000000000000000000000000000000900463ffffffff16806306fdde031461009e578063095ea7b31461012e57806318160ddd146101a15780635a3b7e42146101cc57806370a082311461025c5780638da5cb5b146102c157806395d89b4114610318578063a9059cbb146103a8578063dd62ed3e1461041b575b600080fd5b3480156100aa57600080fd5b506100b36104a0565b6040518080602001828103825283818151815260200191508051906020019080838360005b838110156100f35780820151818401526020810190506100d8565b50505050905090810190601f1680156101205780820380516001836020036101000a031916815260200191505b509250505060405180910390f35b34801561013a57600080fd5b506101876004803603604081101561015157600080fd5b81019080803573ffffffffffffffffffffffffffffffffffffffff1690602001909291908035906020019092919050505061053e565b604051808215151515815260200191505060405180910390f35b3480156101ad57600080fd5b506101b6610630565b6040518082815260200191505060405180910390f35b3480156101d857600080fd5b506101e1610636565b6040518080602001828103825283818151815260200191508051906020019080838360005b83811015610221578082015181840152602081019050610206565b50505050905090810190601f16801561024e5780820380516001836020036101000a031916815260200191505b509250505060405180910390f35b34801561026857600080fd5b506102ab6004803603602081101561027f57600080fd5b81019080803573ffffffffffffffffffffffffffffffffffffffff1690602001909291905050506106d4565b6040518082815260200191505060405180910390f35b3480156102cd57600080fd5b506102d66106ec565b604051808273ffffffffffffffffffffffffffffffffffffffff1673ffffffffffffffffffffffffffffffffffffffff16815260200191505060405180910390f35b34801561032457600080fd5b5061032d610712565b6040518080602001828103825283818151815260200191508051906020019080838360005b8381101561036d578082015181840152602081019050610352565b50505050905090810190601f16801561039a5780820380516001836020036101000a031916815260200191505b509250505060405180910390f35b3480156103b457600080fd5b50610401600480360360408110156103cb57600080fd5b81019080803573ffffffffffffffffffffffffffffffffffffffff169060200190929190803590602001909291905050506107b0565b604051808215151515815260200191505060405180910390f35b34801561042757600080fd5b5061048a6004803603604081101561043e57600080fd5b81019080803573ffffffffffffffffffffffffffffffffffffffff169060200190929190803573ffffffffffffffffffffffffffffffffffffffff1690602001909291905050506109b6565b6040518082815260200191505060405180910390f35b60008054600181600116156101000203166002900480601f0160208091040260200160405190810160405280929190818152602001828054600181600116156101000203166002900480156105365780601f1061050b57610100808354040283529160200191610536565b820191906000526020600020905b81548152906001019060200180831161051957829003601f168201915b505050505081565b600081600660003373ffffffffffffffffffffffffffffffffffffffff1673ffffffffffffffffffffffffffffffffffffffff16815260200190815260200160002060008573ffffffffffffffffffffffffffffffffffffffff1673ffffffffffffffffffffffffffffffffffffffff168152602001908152602001600020819055508273ffffffffffffffffffffffffffffffffffffffff163373ffffffffffffffffffffffffffffffffffffffff167f8c5be1e5ebec7d5bd14f71427d1e84f3dd0314c0f7b2291e5b200ac8c7c3b925846040518082815260200191505060405180910390a36001905092915050565b60035481565b60028054600181600116156101000203166002900480601f0160208091040260200160405190810160405280929190818152602001828054600181600116156101000203166002900480156106cc5780601f106106a1576101008083540402835291602001916106cc565b820191906000526020600020905b8154815290600101906020018083116106af57829003601f168201915b505050505081565b60056020528060005260406000206000915090505481565b600460009054906101000a900473ffffffffffffffffffffffffffffffffffffffff1681565b60018054600181600116156101000203166002900480601f0160208091040260200160405190810160405280929190818152602001828054600181600116156101000203166002900480156107a85780601f1061077d576101008083540402835291602001916107a8565b820191906000526020600020905b81548152906001019060200180831161078b57829003601f168201915b505050505081565b60008160056000600460009054906101000a900473ffffffffffffffffffffffffffffffffffffffff1673ffffffffffffffffffffffffffffffffffffffff1673ffffffffffffffffffffffffffffffffffffffff168152602001908152602001600020541015151561088b576040517f08c379a000000000000000000000000000000000000000000000000000000000815260040180806020018281038252601f8152602001807f20496e73756666696369656e742042616c616e6365206f662053656e6465720081525060200191505060405180910390fd5b8160056000600460009054906101000a900473ffffffffffffffffffffffffffffffffffffffff1673ffffffffffffffffffffffffffffffffffffffff1673ffffffffffffffffffffffffffffffffffffffff1681526020019081526020016000206000828254039250508190555081600560008573ffffffffffffffffffffffffffffffffffffffff1673ffffffffffffffffffffffffffffffffffffffff168152602001908152602001600020600082825401925050819055508273ffffffffffffffffffffffffffffffffffffffff163373ffffffffffffffffffffffffffffffffffffffff167fddf252ad1be2c89b69c2b068fc378daa952ba7f163c4a11628f55a4df523b3ef846040518082815260200191505060405180910390a36001905092915050565b600660205281600052604060002060205280600052604060002060009150915050548156fea165627a7a7230582078c86bc27add5d32ccb33c62c48ad960745acbf1bff1732230d9e402534422690029",
  "source": "pragma solidity ^0.5.0;\r\n\r\n/**\r\n * The Xotik contract does this and that...\r\n */\r\ncontract Xotik {\r\n  string public name = \"Xotik\";\r\n  string public symbol = \"$XOTIK\";\r\n  string public standard = \"XOTIK v1.0\";\r\n  uint256 public totalSupply = 1000000;\r\n  address public owner;\r\n\r\n\r\n  event Transfer (\r\n    address indexed _from,\r\n    address indexed _to,\r\n    uint256 _value\r\n\r\n    );\r\n\r\n  event Approval(\r\n  \taddress indexed _owner,\r\n  \taddress indexed _spender,\r\n  \tuint256 _value\r\n  \t);\r\n  \r\n\r\n  mapping (address => uint256) public balanceOf;\r\n  mapping (address => mapping (address => uint256)) public allowance;\r\n  \r\n  \r\n  \r\n  constructor(uint256 _initialSupply) public {\r\n    owner = msg.sender;\r\n    balanceOf[owner] = _initialSupply;\r\n    totalSupply = _initialSupply; \r\n  }\r\n\r\n  function transfer (address _to, uint256 _value) public returns(bool success){\r\n      \r\n          require (balanceOf[owner] >= _value, \" Insufficient Balance of Sender\");\r\n\r\n          balanceOf[owner] -= _value;\r\n          balanceOf[_to] += _value;\r\n\r\n\r\n          emit Transfer (msg.sender, _to, _value);\r\n\r\n          return true;\r\n                \r\n  }\r\n\r\n   function approve(address _spender, uint256 _value) public returns (bool success) {\r\n        allowance[msg.sender][_spender] = _value;\r\n\r\n        emit Approval(msg.sender, _spender, _value);\r\n\r\n        return true;\r\n    }\r\n\r\n\r\n    // approve\r\n    // function approve (address _spender, uint256 _value) public returns(bool success) {\r\n    \t\r\n    // }\r\n    \r\n\r\n    //transfer from\r\n\r\n\r\n\r\n  \r\n}",
  "sourcePath": "C:\\Users\\CryptSdk\\Documents\\Tokens\\Xotik-sale\\contracts\\Xotik.sol",
  "compiler": {
    "name": "solc",
    "version": "0.5.0+commit.1d4f565a.Emscripten.clang"
  },
  "schemaVersion": "3.4.3",
  "updatedAt": "2021-11-24T10:30:02.266Z",
  "devdoc": {
    "methods": {}
  },
  "userdoc": {
    "methods": {},
    "notice": "The Xotik contract does this and that...\r"
  }
}